{
  "_format": "hh-sol-artifact-1",
  "contractName": "NFTMarketplace",
  "sourceName": "contracts/NFTMarketplace.sol",
  "abi": [
    {
      "inputs": [],
      "stateMutability": "nonpayable",
      "type": "constructor"
    },
    {
      "inputs": [
        {
          "internalType": "address",
          "name": "owner",
          "type": "address"
        }
      ],
      "name": "OwnableInvalidOwner",
      "type": "error"
    },
    {
      "inputs": [
        {
          "internalType": "address",
          "name": "account",
          "type": "address"
        }
      ],
      "name": "OwnableUnauthorizedAccount",
      "type": "error"
    },
    {
      "anonymous": false,
      "inputs": [
        {
          "indexed": true,
          "internalType": "uint256",
          "name": "listingId",
          "type": "uint256"
        },
        {
          "indexed": true,
          "internalType": "address",
          "name": "buyer",
          "type": "address"
        },
        {
          "indexed": true,
          "internalType": "address",
          "name": "seller",
          "type": "address"
        },
        {
          "indexed": false,
          "internalType": "uint256",
          "name": "price",
          "type": "uint256"
        }
      ],
      "name": "ItemSold",
      "type": "event"
    },
    {
      "anonymous": false,
      "inputs": [
        {
          "indexed": true,
          "internalType": "uint256",
          "name": "listingId",
          "type": "uint256"
        }
      ],
      "name": "ListingCancelled",
      "type": "event"
    },
    {
      "anonymous": false,
      "inputs": [
        {
          "indexed": true,
          "internalType": "uint256",
          "name": "listingId",
          "type": "uint256"
        },
        {
          "indexed": true,
          "internalType": "address",
          "name": "seller",
          "type": "address"
        },
        {
          "indexed": true,
          "internalType": "address",
          "name": "nftContract",
          "type": "address"
        },
        {
          "indexed": false,
          "internalType": "uint256",
          "name": "tokenId",
          "type": "uint256"
        },
        {
          "indexed": false,
          "internalType": "uint256",
          "name": "price",
          "type": "uint256"
        }
      ],
      "name": "ListingCreated",
      "type": "event"
    },
    {
      "anonymous": false,
      "inputs": [
        {
          "indexed": true,
          "internalType": "address",
          "name": "previousOwner",
          "type": "address"
        },
        {
          "indexed": true,
          "internalType": "address",
          "name": "newOwner",
          "type": "address"
        }
      ],
      "name": "OwnershipTransferred",
      "type": "event"
    },
    {
      "inputs": [
        {
          "internalType": "uint256",
          "name": "listingId",
          "type": "uint256"
        }
      ],
      "name": "buyItem",
      "outputs": [],
      "stateMutability": "payable",
      "type": "function"
    },
    {
      "inputs": [
        {
          "internalType": "uint256",
          "name": "listingId",
          "type": "uint256"
        }
      ],
      "name": "cancelListing",
      "outputs": [],
      "stateMutability": "nonpayable",
      "type": "function"
    },
    {
      "inputs": [],
      "name": "feeRecipient",
      "outputs": [
        {
          "internalType": "address",
          "name": "",
          "type": "address"
        }
      ],
      "stateMutability": "view",
      "type": "function"
    },
    {
      "inputs": [
        {
          "internalType": "address",
          "name": "nftContract",
          "type": "address"
        },
        {
          "internalType": "uint256",
          "name": "tokenId",
          "type": "uint256"
        },
        {
          "internalType": "uint256",
          "name": "price",
          "type": "uint256"
        }
      ],
      "name": "listItem",
      "outputs": [],
      "stateMutability": "nonpayable",
      "type": "function"
    },
    {
      "inputs": [
        {
          "internalType": "uint256",
          "name": "",
          "type": "uint256"
        }
      ],
      "name": "listings",
      "outputs": [
        {
          "internalType": "address",
          "name": "seller",
          "type": "address"
        },
        {
          "internalType": "address",
          "name": "nftContract",
          "type": "address"
        },
        {
          "internalType": "uint256",
          "name": "tokenId",
          "type": "uint256"
        },
        {
          "internalType": "uint256",
          "name": "price",
          "type": "uint256"
        },
        {
          "internalType": "bool",
          "name": "active",
          "type": "bool"
        }
      ],
      "stateMutability": "view",
      "type": "function"
    },
    {
      "inputs": [],
      "name": "marketplaceFeePercentage",
      "outputs": [
        {
          "internalType": "uint256",
          "name": "",
          "type": "uint256"
        }
      ],
      "stateMutability": "view",
      "type": "function"
    },
    {
      "inputs": [],
      "name": "owner",
      "outputs": [
        {
          "internalType": "address",
          "name": "",
          "type": "address"
        }
      ],
      "stateMutability": "view",
      "type": "function"
    },
    {
      "inputs": [],
      "name": "renounceOwnership",
      "outputs": [],
      "stateMutability": "nonpayable",
      "type": "function"
    },
    {
      "inputs": [
        {
          "internalType": "address",
          "name": "newRecipient",
          "type": "address"
        }
      ],
      "name": "setFeeRecipient",
      "outputs": [],
      "stateMutability": "nonpayable",
      "type": "function"
    },
    {
      "inputs": [
        {
          "internalType": "uint256",
          "name": "newFee",
          "type": "uint256"
        }
      ],
      "name": "setMarketplaceFee",
      "outputs": [],
      "stateMutability": "nonpayable",
      "type": "function"
    },
    {
      "inputs": [
        {
          "internalType": "address",
          "name": "newOwner",
          "type": "address"
        }
      ],
      "name": "transferOwnership",
      "outputs": [],
      "stateMutability": "nonpayable",
      "type": "function"
    },
    {
      "inputs": [],
      "name": "withdrawFees",
      "outputs": [],
      "stateMutability": "nonpayable",
      "type": "function"
    }
  ],
  "bytecode": "0x608060405260fa60015534801561001557600080fd5b5033600073ffffffffffffffffffffffffffffffffffffffff168173ffffffffffffffffffffffffffffffffffffffff16036100895760006040517f1e4fbdf700000000000000000000000000000000000000000000000000000000815260040161008091906101ec565b60405180910390fd5b610098816100e760201b60201c565b5033600260006101000a81548173ffffffffffffffffffffffffffffffffffffffff021916908373ffffffffffffffffffffffffffffffffffffffff1602179055506001600381905550610207565b60008060009054906101000a900473ffffffffffffffffffffffffffffffffffffffff169050816000806101000a81548173ffffffffffffffffffffffffffffffffffffffff021916908373ffffffffffffffffffffffffffffffffffffffff1602179055508173ffffffffffffffffffffffffffffffffffffffff168173ffffffffffffffffffffffffffffffffffffffff167f8be0079c531659141344cd1fd0a4f28419497f9722a3daafe3b4186f6b6457e060405160405180910390a35050565b600073ffffffffffffffffffffffffffffffffffffffff82169050919050565b60006101d6826101ab565b9050919050565b6101e6816101cb565b82525050565b600060208201905061020160008301846101dd565b92915050565b611a52806102166000396000f3fe6080604052600436106100a75760003560e01c80638da5cb5b116100645780638da5cb5b146101825780639407ea98146101ad578063de74e57b146101d6578063e74b981b14610217578063e7fb74c714610240578063f2fde38b1461025c576100a7565b8063305a67a8146100ac57806346904840146100d5578063476343ee146101005780634adadddf14610117578063715018a61461014257806389bfd38f14610159575b600080fd5b3480156100b857600080fd5b506100d360048036038101906100ce91906110e3565b610285565b005b3480156100e157600080fd5b506100ea6103cd565b6040516100f79190611151565b60405180910390f35b34801561010c57600080fd5b506101156103f3565b005b34801561012357600080fd5b5061012c6104fa565b604051610139919061117b565b60405180910390f35b34801561014e57600080fd5b50610157610500565b005b34801561016557600080fd5b50610180600480360381019061017b91906111c2565b610514565b005b34801561018e57600080fd5b5061019761095f565b6040516101a49190611151565b60405180910390f35b3480156101b957600080fd5b506101d460048036038101906101cf91906110e3565b610988565b005b3480156101e257600080fd5b506101fd60048036038101906101f891906110e3565b6109df565b60405161020e959493929190611230565b60405180910390f35b34801561022357600080fd5b5061023e60048036038101906102399190611283565b610a62565b005b61025a600480360381019061025591906110e3565b610b1d565b005b34801561026857600080fd5b50610283600480360381019061027e9190611283565b610ecf565b005b60006004600083815260200190815260200160002090508060040160009054906101000a900460ff166102ed576040517f08c379a00000000000000000000000000000000000000000000000000000000081526004016102e49061130d565b60405180910390fd5b3373ffffffffffffffffffffffffffffffffffffffff168160000160009054906101000a900473ffffffffffffffffffffffffffffffffffffffff1673ffffffffffffffffffffffffffffffffffffffff161461037f576040517f08c379a000000000000000000000000000000000000000000000000000000000815260040161037690611379565b60405180910390fd5b60008160040160006101000a81548160ff021916908315150217905550817f411aee90354c51b1b04cd563fcab2617142a9d50da19232d888547c8a1b7fd8a60405160405180910390a25050565b600260009054906101000a900473ffffffffffffffffffffffffffffffffffffffff1681565b6103fb610f55565b600047905060008111610443576040517f08c379a000000000000000000000000000000000000000000000000000000000815260040161043a906113e5565b60405180910390fd5b600061044d61095f565b73ffffffffffffffffffffffffffffffffffffffff168260405161047090611436565b60006040518083038185875af1925050503d80600081146104ad576040519150601f19603f3d011682016040523d82523d6000602084013e6104b2565b606091505b50509050806104f6576040517f08c379a00000000000000000000000000000000000000000000000000000000081526004016104ed90611497565b60405180910390fd5b5050565b60015481565b610508610f55565b6105126000610fdc565b565b60008111610557576040517f08c379a000000000000000000000000000000000000000000000000000000000815260040161054e90611503565b60405180910390fd5b3373ffffffffffffffffffffffffffffffffffffffff168373ffffffffffffffffffffffffffffffffffffffff16636352211e846040518263ffffffff1660e01b81526004016105a7919061117b565b602060405180830381865afa1580156105c4573d6000803e3d6000fd5b505050506040513d601f19601f820116820180604052508101906105e89190611538565b73ffffffffffffffffffffffffffffffffffffffff161461063e576040517f08c379a0000000000000000000000000000000000000000000000000000000008152600401610635906115b1565b60405180910390fd5b8273ffffffffffffffffffffffffffffffffffffffff1663e985e9c533306040518363ffffffff1660e01b81526004016106799291906115d1565b602060405180830381865afa158015610696573d6000803e3d6000fd5b505050506040513d601f19601f820116820180604052508101906106ba9190611626565b8061076957503073ffffffffffffffffffffffffffffffffffffffff168373ffffffffffffffffffffffffffffffffffffffff1663081812fc846040518263ffffffff1660e01b8152600401610710919061117b565b602060405180830381865afa15801561072d573d6000803e3d6000fd5b505050506040513d601f19601f820116820180604052508101906107519190611538565b73ffffffffffffffffffffffffffffffffffffffff16145b6107a8576040517f08c379a000000000000000000000000000000000000000000000000000000000815260040161079f9061169f565b60405180910390fd5b6000600360008154809291906107bd906116ee565b9190505590506040518060a001604052803373ffffffffffffffffffffffffffffffffffffffff1681526020018573ffffffffffffffffffffffffffffffffffffffff168152602001848152602001838152602001600115158152506004600083815260200190815260200160002060008201518160000160006101000a81548173ffffffffffffffffffffffffffffffffffffffff021916908373ffffffffffffffffffffffffffffffffffffffff16021790555060208201518160010160006101000a81548173ffffffffffffffffffffffffffffffffffffffff021916908373ffffffffffffffffffffffffffffffffffffffff160217905550604082015181600201556060820151816003015560808201518160040160006101000a81548160ff0219169083151502179055509050508373ffffffffffffffffffffffffffffffffffffffff163373ffffffffffffffffffffffffffffffffffffffff16827f508c75a3cb42c068e54cf9e0b738921b4e2375725c5965ef4a110475606fc05a8686604051610951929190611736565b60405180910390a450505050565b60008060009054906101000a900473ffffffffffffffffffffffffffffffffffffffff16905090565b610990610f55565b6103e88111156109d5576040517f08c379a00000000000000000000000000000000000000000000000000000000081526004016109cc906117ab565b60405180910390fd5b8060018190555050565b60046020528060005260406000206000915090508060000160009054906101000a900473ffffffffffffffffffffffffffffffffffffffff16908060010160009054906101000a900473ffffffffffffffffffffffffffffffffffffffff16908060020154908060030154908060040160009054906101000a900460ff16905085565b610a6a610f55565b600073ffffffffffffffffffffffffffffffffffffffff168173ffffffffffffffffffffffffffffffffffffffff1603610ad9576040517f08c379a0000000000000000000000000000000000000000000000000000000008152600401610ad090611817565b60405180910390fd5b80600260006101000a81548173ffffffffffffffffffffffffffffffffffffffff021916908373ffffffffffffffffffffffffffffffffffffffff16021790555050565b60006004600083815260200190815260200160002090508060040160009054906101000a900460ff16610b85576040517f08c379a0000000000000000000000000000000000000000000000000000000008152600401610b7c9061130d565b60405180910390fd5b80600301543414610bcb576040517f08c379a0000000000000000000000000000000000000000000000000000000008152600401610bc290611883565b60405180910390fd5b600061271060015434610bde91906118a3565b610be89190611914565b905060008134610bf89190611945565b90508260010160009054906101000a900473ffffffffffffffffffffffffffffffffffffffff1673ffffffffffffffffffffffffffffffffffffffff166342842e0e8460000160009054906101000a900473ffffffffffffffffffffffffffffffffffffffff163386600201546040518463ffffffff1660e01b8152600401610c8393929190611979565b600060405180830381600087803b158015610c9d57600080fd5b505af1158015610cb1573d6000803e3d6000fd5b505050506000600260009054906101000a900473ffffffffffffffffffffffffffffffffffffffff1673ffffffffffffffffffffffffffffffffffffffff1683604051610cfd90611436565b60006040518083038185875af1925050503d8060008114610d3a576040519150601f19603f3d011682016040523d82523d6000602084013e610d3f565b606091505b5050905060008460000160009054906101000a900473ffffffffffffffffffffffffffffffffffffffff1673ffffffffffffffffffffffffffffffffffffffff1683604051610d8d90611436565b60006040518083038185875af1925050503d8060008114610dca576040519150601f19603f3d011682016040523d82523d6000602084013e610dcf565b606091505b50509050818015610ddd5750805b610e1c576040517f08c379a0000000000000000000000000000000000000000000000000000000008152600401610e13906119fc565b60405180910390fd5b60008560040160006101000a81548160ff0219169083151502179055508460000160009054906101000a900473ffffffffffffffffffffffffffffffffffffffff1673ffffffffffffffffffffffffffffffffffffffff163373ffffffffffffffffffffffffffffffffffffffff16877f04ddd54c6b746e69ba87f862311f7670bd1d7276846778ac81cd38747b27a7468860030154604051610ebf919061117b565b60405180910390a4505050505050565b610ed7610f55565b600073ffffffffffffffffffffffffffffffffffffffff168173ffffffffffffffffffffffffffffffffffffffff1603610f495760006040517f1e4fbdf7000000000000000000000000000000000000000000000000000000008152600401610f409190611151565b60405180910390fd5b610f5281610fdc565b50565b610f5d6110a0565b73ffffffffffffffffffffffffffffffffffffffff16610f7b61095f565b73ffffffffffffffffffffffffffffffffffffffff1614610fda57610f9e6110a0565b6040517f118cdaa7000000000000000000000000000000000000000000000000000000008152600401610fd19190611151565b60405180910390fd5b565b60008060009054906101000a900473ffffffffffffffffffffffffffffffffffffffff169050816000806101000a81548173ffffffffffffffffffffffffffffffffffffffff021916908373ffffffffffffffffffffffffffffffffffffffff1602179055508173ffffffffffffffffffffffffffffffffffffffff168173ffffffffffffffffffffffffffffffffffffffff167f8be0079c531659141344cd1fd0a4f28419497f9722a3daafe3b4186f6b6457e060405160405180910390a35050565b600033905090565b600080fd5b6000819050919050565b6110c0816110ad565b81146110cb57600080fd5b50565b6000813590506110dd816110b7565b92915050565b6000602082840312156110f9576110f86110a8565b5b6000611107848285016110ce565b91505092915050565b600073ffffffffffffffffffffffffffffffffffffffff82169050919050565b600061113b82611110565b9050919050565b61114b81611130565b82525050565b60006020820190506111666000830184611142565b92915050565b611175816110ad565b82525050565b6000602082019050611190600083018461116c565b92915050565b61119f81611130565b81146111aa57600080fd5b50565b6000813590506111bc81611196565b92915050565b6000806000606084860312156111db576111da6110a8565b5b60006111e9868287016111ad565b93505060206111fa868287016110ce565b925050604061120b868287016110ce565b9150509250925092565b60008115159050919050565b61122a81611215565b82525050565b600060a0820190506112456000830188611142565b6112526020830187611142565b61125f604083018661116c565b61126c606083018561116c565b6112796080830184611221565b9695505050505050565b600060208284031215611299576112986110a8565b5b60006112a7848285016111ad565b91505092915050565b600082825260208201905092915050565b7f4c697374696e6720696e61637469766500000000000000000000000000000000600082015250565b60006112f76010836112b0565b9150611302826112c1565b602082019050919050565b60006020820190508181036000830152611326816112ea565b9050919050565b7f4e6f742073656c6c657200000000000000000000000000000000000000000000600082015250565b6000611363600a836112b0565b915061136e8261132d565b602082019050919050565b6000602082019050818103600083015261139281611356565b9050919050565b7f4e6f206665657320746f20776974686472617700000000000000000000000000600082015250565b60006113cf6013836112b0565b91506113da82611399565b602082019050919050565b600060208201905081810360008301526113fe816113c2565b9050919050565b600081905092915050565b50565b6000611420600083611405565b915061142b82611410565b600082019050919050565b600061144182611413565b9150819050919050565b7f5769746864726177616c206661696c6564000000000000000000000000000000600082015250565b60006114816011836112b0565b915061148c8261144b565b602082019050919050565b600060208201905081810360008301526114b081611474565b9050919050565b7f5072696365206d757374206265203e2030000000000000000000000000000000600082015250565b60006114ed6011836112b0565b91506114f8826114b7565b602082019050919050565b6000602082019050818103600083015261151c816114e0565b9050919050565b60008151905061153281611196565b92915050565b60006020828403121561154e5761154d6110a8565b5b600061155c84828501611523565b91505092915050565b7f4e6f7420746f6b656e206f776e65720000000000000000000000000000000000600082015250565b600061159b600f836112b0565b91506115a682611565565b602082019050919050565b600060208201905081810360008301526115ca8161158e565b9050919050565b60006040820190506115e66000830185611142565b6115f36020830184611142565b9392505050565b61160381611215565b811461160e57600080fd5b50565b600081519050611620816115fa565b92915050565b60006020828403121561163c5761163b6110a8565b5b600061164a84828501611611565b91505092915050565b7f4d61726b6574706c616365206e6f7420617070726f7665640000000000000000600082015250565b60006116896018836112b0565b915061169482611653565b602082019050919050565b600060208201905081810360008301526116b88161167c565b9050919050565b7f4e487b7100000000000000000000000000000000000000000000000000000000600052601160045260246000fd5b60006116f9826110ad565b91507fffffffffffffffffffffffffffffffffffffffffffffffffffffffffffffffff820361172b5761172a6116bf565b5b600182019050919050565b600060408201905061174b600083018561116c565b611758602083018461116c565b9392505050565b7f46656520746f6f20686967680000000000000000000000000000000000000000600082015250565b6000611795600c836112b0565b91506117a08261175f565b602082019050919050565b600060208201905081810360008301526117c481611788565b9050919050565b7f496e76616c696420616464726573730000000000000000000000000000000000600082015250565b6000611801600f836112b0565b915061180c826117cb565b602082019050919050565b60006020820190508181036000830152611830816117f4565b9050919050565b7f496e636f72726563742045544820616d6f756e74000000000000000000000000600082015250565b600061186d6014836112b0565b915061187882611837565b602082019050919050565b6000602082019050818103600083015261189c81611860565b9050919050565b60006118ae826110ad565b91506118b9836110ad565b92508282026118c7816110ad565b915082820484148315176118de576118dd6116bf565b5b5092915050565b7f4e487b7100000000000000000000000000000000000000000000000000000000600052601260045260246000fd5b600061191f826110ad565b915061192a836110ad565b92508261193a576119396118e5565b5b828204905092915050565b6000611950826110ad565b915061195b836110ad565b9250828203905081811115611973576119726116bf565b5b92915050565b600060608201905061198e6000830186611142565b61199b6020830185611142565b6119a8604083018461116c565b949350505050565b7f5472616e73666572206661696c65640000000000000000000000000000000000600082015250565b60006119e6600f836112b0565b91506119f1826119b0565b602082019050919050565b60006020820190508181036000830152611a15816119d9565b905091905056fea2646970667358221220cbaf9051bdbb14d9bc339ae6347721201674aceccd01adc20cbc629ee2a20d5864736f6c634300081c0033",
  "linkReferences": {},
  "deployedLinkReferences": {}
}