{
  "_format": "hh-sol-artifact-1",
  "contractName": "MyNFTCollection",
  "sourceName": "contracts/MyNFTCollection.sol",
  "abi": [
    {
      "inputs": [],
      "stateMutability": "nonpayable",
      "type": "constructor"
    },
    {
      "inputs": [
        {
          "internalType": "address",
          "name": "sender",
          "type": "address"
        },
        {
          "internalType": "uint256",
          "name": "tokenId",
          "type": "uint256"
        },
        {
          "internalType": "address",
          "name": "owner",
          "type": "address"
        }
      ],
      "name": "ERC721IncorrectOwner",
      "type": "error"
    },
    {
      "inputs": [
        {
          "internalType": "address",
          "name": "operator",
          "type": "address"
        },
        {
          "internalType": "uint256",
          "name": "tokenId",
          "type": "uint256"
        }
      ],
      "name": "ERC721InsufficientApproval",
      "type": "error"
    },
    {
      "inputs": [
        {
          "internalType": "address",
          "name": "approver",
          "type": "address"
        }
      ],
      "name": "ERC721InvalidApprover",
      "type": "error"
    },
    {
      "inputs": [
        {
          "internalType": "address",
          "name": "operator",
          "type": "address"
        }
      ],
      "name": "ERC721InvalidOperator",
      "type": "error"
    },
    {
      "inputs": [
        {
          "internalType": "address",
          "name": "owner",
          "type": "address"
        }
      ],
      "name": "ERC721InvalidOwner",
      "type": "error"
    },
    {
      "inputs": [
        {
          "internalType": "address",
          "name": "receiver",
          "type": "address"
        }
      ],
      "name": "ERC721InvalidReceiver",
      "type": "error"
    },
    {
      "inputs": [
        {
          "internalType": "address",
          "name": "sender",
          "type": "address"
        }
      ],
      "name": "ERC721InvalidSender",
      "type": "error"
    },
    {
      "inputs": [
        {
          "internalType": "uint256",
          "name": "tokenId",
          "type": "uint256"
        }
      ],
      "name": "ERC721NonexistentToken",
      "type": "error"
    },
    {
      "inputs": [
        {
          "internalType": "address",
          "name": "owner",
          "type": "address"
        }
      ],
      "name": "OwnableInvalidOwner",
      "type": "error"
    },
    {
      "inputs": [
        {
          "internalType": "address",
          "name": "account",
          "type": "address"
        }
      ],
      "name": "OwnableUnauthorizedAccount",
      "type": "error"
    },
    {
      "anonymous": false,
      "inputs": [
        {
          "indexed": true,
          "internalType": "address",
          "name": "owner",
          "type": "address"
        },
        {
          "indexed": true,
          "internalType": "address",
          "name": "approved",
          "type": "address"
        },
        {
          "indexed": true,
          "internalType": "uint256",
          "name": "tokenId",
          "type": "uint256"
        }
      ],
      "name": "Approval",
      "type": "event"
    },
    {
      "anonymous": false,
      "inputs": [
        {
          "indexed": true,
          "internalType": "address",
          "name": "owner",
          "type": "address"
        },
        {
          "indexed": true,
          "internalType": "address",
          "name": "operator",
          "type": "address"
        },
        {
          "indexed": false,
          "internalType": "bool",
          "name": "approved",
          "type": "bool"
        }
      ],
      "name": "ApprovalForAll",
      "type": "event"
    },
    {
      "anonymous": false,
      "inputs": [
        {
          "indexed": false,
          "internalType": "uint256",
          "name": "_fromTokenId",
          "type": "uint256"
        },
        {
          "indexed": false,
          "internalType": "uint256",
          "name": "_toTokenId",
          "type": "uint256"
        }
      ],
      "name": "BatchMetadataUpdate",
      "type": "event"
    },
    {
      "anonymous": false,
      "inputs": [
        {
          "indexed": false,
          "internalType": "uint256",
          "name": "_tokenId",
          "type": "uint256"
        }
      ],
      "name": "MetadataUpdate",
      "type": "event"
    },
    {
      "anonymous": false,
      "inputs": [
        {
          "indexed": true,
          "internalType": "address",
          "name": "previousOwner",
          "type": "address"
        },
        {
          "indexed": true,
          "internalType": "address",
          "name": "newOwner",
          "type": "address"
        }
      ],
      "name": "OwnershipTransferred",
      "type": "event"
    },
    {
      "anonymous": false,
      "inputs": [
        {
          "indexed": true,
          "internalType": "address",
          "name": "from",
          "type": "address"
        },
        {
          "indexed": true,
          "internalType": "address",
          "name": "to",
          "type": "address"
        },
        {
          "indexed": true,
          "internalType": "uint256",
          "name": "tokenId",
          "type": "uint256"
        }
      ],
      "name": "Transfer",
      "type": "event"
    },
    {
      "inputs": [],
      "name": "MAX_MINT_AMOUNT_PER_TX",
      "outputs": [
        {
          "internalType": "uint256",
          "name": "",
          "type": "uint256"
        }
      ],
      "stateMutability": "view",
      "type": "function"
    },
    {
      "inputs": [],
      "name": "MAX_SUPPLY",
      "outputs": [
        {
          "internalType": "uint256",
          "name": "",
          "type": "uint256"
        }
      ],
      "stateMutability": "view",
      "type": "function"
    },
    {
      "inputs": [],
      "name": "MINT_PRICE",
      "outputs": [
        {
          "internalType": "uint256",
          "name": "",
          "type": "uint256"
        }
      ],
      "stateMutability": "view",
      "type": "function"
    },
    {
      "inputs": [
        {
          "internalType": "address",
          "name": "to",
          "type": "address"
        },
        {
          "internalType": "uint256",
          "name": "tokenId",
          "type": "uint256"
        }
      ],
      "name": "approve",
      "outputs": [],
      "stateMutability": "nonpayable",
      "type": "function"
    },
    {
      "inputs": [
        {
          "internalType": "address",
          "name": "owner",
          "type": "address"
        }
      ],
      "name": "balanceOf",
      "outputs": [
        {
          "internalType": "uint256",
          "name": "",
          "type": "uint256"
        }
      ],
      "stateMutability": "view",
      "type": "function"
    },
    {
      "inputs": [],
      "name": "flipSaleState",
      "outputs": [],
      "stateMutability": "nonpayable",
      "type": "function"
    },
    {
      "inputs": [
        {
          "internalType": "uint256",
          "name": "tokenId",
          "type": "uint256"
        }
      ],
      "name": "getApproved",
      "outputs": [
        {
          "internalType": "address",
          "name": "",
          "type": "address"
        }
      ],
      "stateMutability": "view",
      "type": "function"
    },
    {
      "inputs": [
        {
          "internalType": "address",
          "name": "owner",
          "type": "address"
        },
        {
          "internalType": "address",
          "name": "operator",
          "type": "address"
        }
      ],
      "name": "isApprovedForAll",
      "outputs": [
        {
          "internalType": "bool",
          "name": "",
          "type": "bool"
        }
      ],
      "stateMutability": "view",
      "type": "function"
    },
    {
      "inputs": [
        {
          "internalType": "uint256",
          "name": "quantity",
          "type": "uint256"
        }
      ],
      "name": "mintNFT",
      "outputs": [],
      "stateMutability": "payable",
      "type": "function"
    },
    {
      "inputs": [],
      "name": "name",
      "outputs": [
        {
          "internalType": "string",
          "name": "",
          "type": "string"
        }
      ],
      "stateMutability": "view",
      "type": "function"
    },
    {
      "inputs": [],
      "name": "owner",
      "outputs": [
        {
          "internalType": "address",
          "name": "",
          "type": "address"
        }
      ],
      "stateMutability": "view",
      "type": "function"
    },
    {
      "inputs": [
        {
          "internalType": "uint256",
          "name": "tokenId",
          "type": "uint256"
        }
      ],
      "name": "ownerOf",
      "outputs": [
        {
          "internalType": "address",
          "name": "",
          "type": "address"
        }
      ],
      "stateMutability": "view",
      "type": "function"
    },
    {
      "inputs": [],
      "name": "renounceOwnership",
      "outputs": [],
      "stateMutability": "nonpayable",
      "type": "function"
    },
    {
      "inputs": [
        {
          "internalType": "address",
          "name": "to",
          "type": "address"
        },
        {
          "internalType": "string",
          "name": "uri",
          "type": "string"
        }
      ],
      "name": "safeMint",
      "outputs": [],
      "stateMutability": "nonpayable",
      "type": "function"
    },
    {
      "inputs": [
        {
          "internalType": "address",
          "name": "from",
          "type": "address"
        },
        {
          "internalType": "address",
          "name": "to",
          "type": "address"
        },
        {
          "internalType": "uint256",
          "name": "tokenId",
          "type": "uint256"
        }
      ],
      "name": "safeTransferFrom",
      "outputs": [],
      "stateMutability": "nonpayable",
      "type": "function"
    },
    {
      "inputs": [
        {
          "internalType": "address",
          "name": "from",
          "type": "address"
        },
        {
          "internalType": "address",
          "name": "to",
          "type": "address"
        },
        {
          "internalType": "uint256",
          "name": "tokenId",
          "type": "uint256"
        },
        {
          "internalType": "bytes",
          "name": "data",
          "type": "bytes"
        }
      ],
      "name": "safeTransferFrom",
      "outputs": [],
      "stateMutability": "nonpayable",
      "type": "function"
    },
    {
      "inputs": [],
      "name": "saleIsActive",
      "outputs": [
        {
          "internalType": "bool",
          "name": "",
          "type": "bool"
        }
      ],
      "stateMutability": "view",
      "type": "function"
    },
    {
      "inputs": [
        {
          "internalType": "address",
          "name": "operator",
          "type": "address"
        },
        {
          "internalType": "bool",
          "name": "approved",
          "type": "bool"
        }
      ],
      "name": "setApprovalForAll",
      "outputs": [],
      "stateMutability": "nonpayable",
      "type": "function"
    },
    {
      "inputs": [
        {
          "internalType": "bytes4",
          "name": "interfaceId",
          "type": "bytes4"
        }
      ],
      "name": "supportsInterface",
      "outputs": [
        {
          "internalType": "bool",
          "name": "",
          "type": "bool"
        }
      ],
      "stateMutability": "view",
      "type": "function"
    },
    {
      "inputs": [],
      "name": "symbol",
      "outputs": [
        {
          "internalType": "string",
          "name": "",
          "type": "string"
        }
      ],
      "stateMutability": "view",
      "type": "function"
    },
    {
      "inputs": [
        {
          "internalType": "uint256",
          "name": "tokenId",
          "type": "uint256"
        }
      ],
      "name": "tokenURI",
      "outputs": [
        {
          "internalType": "string",
          "name": "",
          "type": "string"
        }
      ],
      "stateMutability": "view",
      "type": "function"
    },
    {
      "inputs": [
        {
          "internalType": "address",
          "name": "from",
          "type": "address"
        },
        {
          "internalType": "address",
          "name": "to",
          "type": "address"
        },
        {
          "internalType": "uint256",
          "name": "tokenId",
          "type": "uint256"
        }
      ],
      "name": "transferFrom",
      "outputs": [],
      "stateMutability": "nonpayable",
      "type": "function"
    },
    {
      "inputs": [
        {
          "internalType": "address",
          "name": "newOwner",
          "type": "address"
        }
      ],
      "name": "transferOwnership",
      "outputs": [],
      "stateMutability": "nonpayable",
      "type": "function"
    },
    {
      "inputs": [],
      "name": "withdraw",
      "outputs": [],
      "stateMutability": "nonpayable",
      "type": "function"
    }
  ],
  "bytecode": "0x60806040526000600960006101000a81548160ff02191690831515021790555034801561002b57600080fd5b50336040518060400160405280600c81526020017f4c6f79616c7479506f696e7400000000000000000000000000000000000000008152506040518060400160405280600281526020017f4c5000000000000000000000000000000000000000000000000000000000000081525081600090816100a89190610460565b5080600190816100b89190610460565b505050600073ffffffffffffffffffffffffffffffffffffffff168173ffffffffffffffffffffffffffffffffffffffff160361012d5760006040517f1e4fbdf70000000000000000000000000000000000000000000000000000000081526004016101249190610573565b60405180910390fd5b61013c8161014a60201b60201c565b50600060088190555061058e565b6000600760009054906101000a900473ffffffffffffffffffffffffffffffffffffffff16905081600760006101000a81548173ffffffffffffffffffffffffffffffffffffffff021916908373ffffffffffffffffffffffffffffffffffffffff1602179055508173ffffffffffffffffffffffffffffffffffffffff168173ffffffffffffffffffffffffffffffffffffffff167f8be0079c531659141344cd1fd0a4f28419497f9722a3daafe3b4186f6b6457e060405160405180910390a35050565b600081519050919050565b7f4e487b7100000000000000000000000000000000000000000000000000000000600052604160045260246000fd5b7f4e487b7100000000000000000000000000000000000000000000000000000000600052602260045260246000fd5b6000600282049050600182168061029157607f821691505b6020821081036102a4576102a361024a565b5b50919050565b60008190508160005260206000209050919050565b60006020601f8301049050919050565b600082821b905092915050565b60006008830261030c7fffffffffffffffffffffffffffffffffffffffffffffffffffffffffffffffff826102cf565b61031686836102cf565b95508019841693508086168417925050509392505050565b6000819050919050565b6000819050919050565b600061035d6103586103538461032e565b610338565b61032e565b9050919050565b6000819050919050565b61037783610342565b61038b61038382610364565b8484546102dc565b825550505050565b600090565b6103a0610393565b6103ab81848461036e565b505050565b5b818110156103cf576103c4600082610398565b6001810190506103b1565b5050565b601f821115610414576103e5816102aa565b6103ee846102bf565b810160208510156103fd578190505b610411610409856102bf565b8301826103b0565b50505b505050565b600082821c905092915050565b600061043760001984600802610419565b1980831691505092915050565b60006104508383610426565b9150826002028217905092915050565b61046982610210565b67ffffffffffffffff8111156104825761048161021b565b5b61048c8254610279565b6104978282856103d3565b600060209050601f8311600181146104ca57600084156104b8578287015190505b6104c28582610444565b86555061052a565b601f1984166104d8866102aa565b60005b82811015610500578489015182556001820191506020850194506020810190506104db565b8683101561051d5784890151610519601f891682610426565b8355505b6001600288020188555050505b505050505050565b600073ffffffffffffffffffffffffffffffffffffffff82169050919050565b600061055d82610532565b9050919050565b61056d81610552565b82525050565b60006020820190506105886000830184610564565b92915050565b612ed38061059d6000396000f3fe60806040526004361061014b5760003560e01c8063715018a6116100b6578063c002d23d1161006f578063c002d23d14610449578063c87b56dd14610474578063d204c45e146104b1578063e985e9c5146104da578063eb8d244414610517578063f2fde38b146105425761014b565b8063715018a61461036e5780638da5cb5b1461038557806392642744146103b057806395d89b41146103cc578063a22cb465146103f7578063b88d4fde146104205761014b565b806332cb6b0c1161010857806332cb6b0c1461027257806334918dfd1461029d5780633ccfd60b146102b457806342842e0e146102cb5780636352211e146102f457806370a08231146103315761014b565b806301ffc9a71461015057806306fdde031461018d578063081812fc146101b8578063095ea7b3146101f557806309ef65271461021e57806323b872dd14610249575b600080fd5b34801561015c57600080fd5b5061017760048036038101906101729190611fe7565b61056b565b604051610184919061202f565b60405180910390f35b34801561019957600080fd5b506101a261057d565b6040516101af91906120da565b60405180910390f35b3480156101c457600080fd5b506101df60048036038101906101da9190612132565b61060f565b6040516101ec91906121a0565b60405180910390f35b34801561020157600080fd5b5061021c600480360381019061021791906121e7565b61062b565b005b34801561022a57600080fd5b50610233610641565b6040516102409190612236565b60405180910390f35b34801561025557600080fd5b50610270600480360381019061026b9190612251565b610646565b005b34801561027e57600080fd5b50610287610748565b6040516102949190612236565b60405180910390f35b3480156102a957600080fd5b506102b261074e565b005b3480156102c057600080fd5b506102c9610782565b005b3480156102d757600080fd5b506102f260048036038101906102ed9190612251565b610850565b005b34801561030057600080fd5b5061031b60048036038101906103169190612132565b610870565b60405161032891906121a0565b60405180910390f35b34801561033d57600080fd5b50610358600480360381019061035391906122a4565b610882565b6040516103659190612236565b60405180910390f35b34801561037a57600080fd5b5061038361093c565b005b34801561039157600080fd5b5061039a610950565b6040516103a791906121a0565b60405180910390f35b6103ca60048036038101906103c59190612132565b61097a565b005b3480156103d857600080fd5b506103e1610af9565b6040516103ee91906120da565b60405180910390f35b34801561040357600080fd5b5061041e600480360381019061041991906122fd565b610b8b565b005b34801561042c57600080fd5b5061044760048036038101906104429190612472565b610ba1565b005b34801561045557600080fd5b5061045e610bc6565b60405161046b9190612236565b60405180910390f35b34801561048057600080fd5b5061049b60048036038101906104969190612132565b610bd1565b6040516104a891906120da565b60405180910390f35b3480156104bd57600080fd5b506104d860048036038101906104d39190612596565b610be3565b005b3480156104e657600080fd5b5061050160048036038101906104fc91906125f2565b610c69565b60405161050e919061202f565b60405180910390f35b34801561052357600080fd5b5061052c610cfd565b604051610539919061202f565b60405180910390f35b34801561054e57600080fd5b50610569600480360381019061056491906122a4565b610d10565b005b600061057682610d96565b9050919050565b60606000805461058c90612661565b80601f01602080910402602001604051908101604052809291908181526020018280546105b890612661565b80156106055780601f106105da57610100808354040283529160200191610605565b820191906000526020600020905b8154815290600101906020018083116105e857829003601f168201915b5050505050905090565b600061061a82610df7565b5061062482610e7f565b9050919050565b61063d8282610638610ebc565b610ec4565b5050565b600581565b600073ffffffffffffffffffffffffffffffffffffffff168273ffffffffffffffffffffffffffffffffffffffff16036106b85760006040517f64a0ae920000000000000000000000000000000000000000000000000000000081526004016106af91906121a0565b60405180910390fd5b60006106cc83836106c7610ebc565b610ed6565b90508373ffffffffffffffffffffffffffffffffffffffff168173ffffffffffffffffffffffffffffffffffffffff1614610742578382826040517f64283d7b00000000000000000000000000000000000000000000000000000000815260040161073993929190612692565b60405180910390fd5b50505050565b6103e881565b6107566110f0565b600960009054906101000a900460ff1615600960006101000a81548160ff021916908315150217905550565b61078a6110f0565b6000479050600081111561084d5760006107a2610950565b73ffffffffffffffffffffffffffffffffffffffff16826040516107c5906126fa565b60006040518083038185875af1925050503d8060008114610802576040519150601f19603f3d011682016040523d82523d6000602084013e610807565b606091505b505090508061084b576040517f08c379a00000000000000000000000000000000000000000000000000000000081526004016108429061275b565b60405180910390fd5b505b50565b61086b83838360405180602001604052806000815250610ba1565b505050565b600061087b82610df7565b9050919050565b60008073ffffffffffffffffffffffffffffffffffffffff168273ffffffffffffffffffffffffffffffffffffffff16036108f55760006040517f89c62b640000000000000000000000000000000000000000000000000000000081526004016108ec91906121a0565b60405180910390fd5b600360008373ffffffffffffffffffffffffffffffffffffffff1673ffffffffffffffffffffffffffffffffffffffff168152602001908152602001600020549050919050565b6109446110f0565b61094e6000611177565b565b6000600760009054906101000a900473ffffffffffffffffffffffffffffffffffffffff16905090565b600960009054906101000a900460ff166109c9576040517f08c379a00000000000000000000000000000000000000000000000000000000081526004016109c0906127c7565b60405180910390fd5b6005811115610a0d576040517f08c379a0000000000000000000000000000000000000000000000000000000008152600401610a0490612833565b60405180910390fd5b80662386f26fc10000610a209190612882565b3414610a61576040517f08c379a0000000000000000000000000000000000000000000000000000000008152600401610a5890612910565b60405180910390fd5b6103e881600854610a729190612930565b1115610ab3576040517f08c379a0000000000000000000000000000000000000000000000000000000008152600401610aaa906129b0565b60405180910390fd5b60005b81811015610af5576000600854905060086000815480929190610ad8906129d0565b9190505550610ae7338261123d565b508080600101915050610ab6565b5050565b606060018054610b0890612661565b80601f0160208091040260200160405190810160405280929190818152602001828054610b3490612661565b8015610b815780601f10610b5657610100808354040283529160200191610b81565b820191906000526020600020905b815481529060010190602001808311610b6457829003601f168201915b5050505050905090565b610b9d610b96610ebc565b838361125b565b5050565b610bac848484610646565b610bc0610bb7610ebc565b858585856113ca565b50505050565b662386f26fc1000081565b6060610bdc8261157b565b9050919050565b610beb6110f0565b6103e860085410610c31576040517f08c379a0000000000000000000000000000000000000000000000000000000008152600401610c2890612a64565b60405180910390fd5b6000600854905060086000815480929190610c4b906129d0565b9190505550610c5a838261123d565b610c64818361168e565b505050565b6000600560008473ffffffffffffffffffffffffffffffffffffffff1673ffffffffffffffffffffffffffffffffffffffff16815260200190815260200160002060008373ffffffffffffffffffffffffffffffffffffffff1673ffffffffffffffffffffffffffffffffffffffff16815260200190815260200160002060009054906101000a900460ff16905092915050565b600960009054906101000a900460ff1681565b610d186110f0565b600073ffffffffffffffffffffffffffffffffffffffff168173ffffffffffffffffffffffffffffffffffffffff1603610d8a5760006040517f1e4fbdf7000000000000000000000000000000000000000000000000000000008152600401610d8191906121a0565b60405180910390fd5b610d9381611177565b50565b6000634906490660e01b7bffffffffffffffffffffffffffffffffffffffffffffffffffffffff1916827bffffffffffffffffffffffffffffffffffffffffffffffffffffffff19161480610df05750610def826116ea565b5b9050919050565b600080610e03836117cc565b9050600073ffffffffffffffffffffffffffffffffffffffff168173ffffffffffffffffffffffffffffffffffffffff1603610e7657826040517f7e273289000000000000000000000000000000000000000000000000000000008152600401610e6d9190612236565b60405180910390fd5b80915050919050565b60006004600083815260200190815260200160002060009054906101000a900473ffffffffffffffffffffffffffffffffffffffff169050919050565b600033905090565b610ed18383836001611809565b505050565b600080610ee2846117cc565b9050600073ffffffffffffffffffffffffffffffffffffffff168373ffffffffffffffffffffffffffffffffffffffff1614610f2457610f238184866119ce565b5b600073ffffffffffffffffffffffffffffffffffffffff168173ffffffffffffffffffffffffffffffffffffffff1614610fb557610f66600085600080611809565b6001600360008373ffffffffffffffffffffffffffffffffffffffff1673ffffffffffffffffffffffffffffffffffffffff168152602001908152602001600020600082825403925050819055505b600073ffffffffffffffffffffffffffffffffffffffff168573ffffffffffffffffffffffffffffffffffffffff1614611038576001600360008773ffffffffffffffffffffffffffffffffffffffff1673ffffffffffffffffffffffffffffffffffffffff168152602001908152602001600020600082825401925050819055505b846002600086815260200190815260200160002060006101000a81548173ffffffffffffffffffffffffffffffffffffffff021916908373ffffffffffffffffffffffffffffffffffffffff160217905550838573ffffffffffffffffffffffffffffffffffffffff168273ffffffffffffffffffffffffffffffffffffffff167fddf252ad1be2c89b69c2b068fc378daa952ba7f163c4a11628f55a4df523b3ef60405160405180910390a4809150509392505050565b6110f8610ebc565b73ffffffffffffffffffffffffffffffffffffffff16611116610950565b73ffffffffffffffffffffffffffffffffffffffff161461117557611139610ebc565b6040517f118cdaa700000000000000000000000000000000000000000000000000000000815260040161116c91906121a0565b60405180910390fd5b565b6000600760009054906101000a900473ffffffffffffffffffffffffffffffffffffffff16905081600760006101000a81548173ffffffffffffffffffffffffffffffffffffffff021916908373ffffffffffffffffffffffffffffffffffffffff1602179055508173ffffffffffffffffffffffffffffffffffffffff168173ffffffffffffffffffffffffffffffffffffffff167f8be0079c531659141344cd1fd0a4f28419497f9722a3daafe3b4186f6b6457e060405160405180910390a35050565b611257828260405180602001604052806000815250611a92565b5050565b600073ffffffffffffffffffffffffffffffffffffffff168273ffffffffffffffffffffffffffffffffffffffff16036112cc57816040517f5b08ba180000000000000000000000000000000000000000000000000000000081526004016112c391906121a0565b60405180910390fd5b80600560008573ffffffffffffffffffffffffffffffffffffffff1673ffffffffffffffffffffffffffffffffffffffff16815260200190815260200160002060008473ffffffffffffffffffffffffffffffffffffffff1673ffffffffffffffffffffffffffffffffffffffff16815260200190815260200160002060006101000a81548160ff0219169083151502179055508173ffffffffffffffffffffffffffffffffffffffff168373ffffffffffffffffffffffffffffffffffffffff167f17307eab39ab6107e8899845ad3d59bd9653f200f220920489ca2b5937696c31836040516113bd919061202f565b60405180910390a3505050565b60008373ffffffffffffffffffffffffffffffffffffffff163b1115611574578273ffffffffffffffffffffffffffffffffffffffff1663150b7a02868685856040518563ffffffff1660e01b81526004016114299493929190612ad9565b6020604051808303816000875af192505050801561146557506040513d601f19601f820116820180604052508101906114629190612b3a565b60015b6114e9573d8060008114611495576040519150601f19603f3d011682016040523d82523d6000602084013e61149a565b606091505b5060008151036114e157836040517f64a0ae920000000000000000000000000000000000000000000000000000000081526004016114d891906121a0565b60405180910390fd5b805160208201fd5b63150b7a0260e01b7bffffffffffffffffffffffffffffffffffffffffffffffffffffffff1916817bffffffffffffffffffffffffffffffffffffffffffffffffffffffff19161461157257836040517f64a0ae9200000000000000000000000000000000000000000000000000000000815260040161156991906121a0565b60405180910390fd5b505b5050505050565b606061158682610df7565b5060006006600084815260200190815260200160002080546115a790612661565b80601f01602080910402602001604051908101604052809291908181526020018280546115d390612661565b80156116205780601f106115f557610100808354040283529160200191611620565b820191906000526020600020905b81548152906001019060200180831161160357829003601f168201915b505050505090506000611631611ab6565b90506000815103611646578192505050611689565b60008251111561167b578082604051602001611663929190612ba3565b60405160208183030381529060405292505050611689565b61168484611acd565b925050505b919050565b806006600084815260200190815260200160002090816116ae9190612d73565b507ff8e1a15aba9398e019f0b49df1a4fde98ee17ae345cb5f6b5e2c27f5033e8ce7826040516116de9190612236565b60405180910390a15050565b60007f80ac58cd000000000000000000000000000000000000000000000000000000007bffffffffffffffffffffffffffffffffffffffffffffffffffffffff1916827bffffffffffffffffffffffffffffffffffffffffffffffffffffffff191614806117b557507f5b5e139f000000000000000000000000000000000000000000000000000000007bffffffffffffffffffffffffffffffffffffffffffffffffffffffff1916827bffffffffffffffffffffffffffffffffffffffffffffffffffffffff1916145b806117c557506117c482611b36565b5b9050919050565b60006002600083815260200190815260200160002060009054906101000a900473ffffffffffffffffffffffffffffffffffffffff169050919050565b80806118425750600073ffffffffffffffffffffffffffffffffffffffff168273ffffffffffffffffffffffffffffffffffffffff1614155b1561197657600061185284610df7565b9050600073ffffffffffffffffffffffffffffffffffffffff168373ffffffffffffffffffffffffffffffffffffffff16141580156118bd57508273ffffffffffffffffffffffffffffffffffffffff168173ffffffffffffffffffffffffffffffffffffffff1614155b80156118d057506118ce8184610c69565b155b1561191257826040517fa9fbf51f00000000000000000000000000000000000000000000000000000000815260040161190991906121a0565b60405180910390fd5b811561197457838573ffffffffffffffffffffffffffffffffffffffff168273ffffffffffffffffffffffffffffffffffffffff167f8c5be1e5ebec7d5bd14f71427d1e84f3dd0314c0f7b2291e5b200ac8c7c3b92560405160405180910390a45b505b836004600085815260200190815260200160002060006101000a81548173ffffffffffffffffffffffffffffffffffffffff021916908373ffffffffffffffffffffffffffffffffffffffff16021790555050505050565b6119d9838383611ba0565b611a8d57600073ffffffffffffffffffffffffffffffffffffffff168373ffffffffffffffffffffffffffffffffffffffff1603611a4e57806040517f7e273289000000000000000000000000000000000000000000000000000000008152600401611a459190612236565b60405180910390fd5b81816040517f177e802f000000000000000000000000000000000000000000000000000000008152600401611a84929190612e45565b60405180910390fd5b505050565b611a9c8383611c61565b611ab1611aa7610ebc565b60008585856113ca565b505050565b606060405180602001604052806000815250905090565b6060611ad882610df7565b506000611ae3611ab6565b90506000815111611b035760405180602001604052806000815250611b2e565b80611b0d84611d5a565b604051602001611b1e929190612ba3565b6040516020818303038152906040525b915050919050565b60007f01ffc9a7000000000000000000000000000000000000000000000000000000007bffffffffffffffffffffffffffffffffffffffffffffffffffffffff1916827bffffffffffffffffffffffffffffffffffffffffffffffffffffffff1916149050919050565b60008073ffffffffffffffffffffffffffffffffffffffff168373ffffffffffffffffffffffffffffffffffffffff1614158015611c5857508273ffffffffffffffffffffffffffffffffffffffff168473ffffffffffffffffffffffffffffffffffffffff161480611c195750611c188484610c69565b5b80611c5757508273ffffffffffffffffffffffffffffffffffffffff16611c3f83610e7f565b73ffffffffffffffffffffffffffffffffffffffff16145b5b90509392505050565b600073ffffffffffffffffffffffffffffffffffffffff168273ffffffffffffffffffffffffffffffffffffffff1603611cd35760006040517f64a0ae92000000000000000000000000000000000000000000000000000000008152600401611cca91906121a0565b60405180910390fd5b6000611ce183836000610ed6565b9050600073ffffffffffffffffffffffffffffffffffffffff168173ffffffffffffffffffffffffffffffffffffffff1614611d555760006040517f73c6ac6e000000000000000000000000000000000000000000000000000000008152600401611d4c91906121a0565b60405180910390fd5b505050565b606060006001611d6984611e28565b01905060008167ffffffffffffffff811115611d8857611d87612347565b5b6040519080825280601f01601f191660200182016040528015611dba5781602001600182028036833780820191505090505b509050600082602083010190505b600115611e1d578080600190039150507f3031323334353637383961626364656600000000000000000000000000000000600a86061a8153600a8581611e1157611e10612e6e565b5b04945060008503611dc8575b819350505050919050565b600080600090507a184f03e93ff9f4daa797ed6e38ed64bf6a1f0100000000000000008310611e86577a184f03e93ff9f4daa797ed6e38ed64bf6a1f0100000000000000008381611e7c57611e7b612e6e565b5b0492506040810190505b6d04ee2d6d415b85acef81000000008310611ec3576d04ee2d6d415b85acef81000000008381611eb957611eb8612e6e565b5b0492506020810190505b662386f26fc100008310611ef257662386f26fc100008381611ee857611ee7612e6e565b5b0492506010810190505b6305f5e1008310611f1b576305f5e1008381611f1157611f10612e6e565b5b0492506008810190505b6127108310611f40576127108381611f3657611f35612e6e565b5b0492506004810190505b60648310611f635760648381611f5957611f58612e6e565b5b0492506002810190505b600a8310611f72576001810190505b80915050919050565b6000604051905090565b600080fd5b600080fd5b60007fffffffff0000000000000000000000000000000000000000000000000000000082169050919050565b611fc481611f8f565b8114611fcf57600080fd5b50565b600081359050611fe181611fbb565b92915050565b600060208284031215611ffd57611ffc611f85565b5b600061200b84828501611fd2565b91505092915050565b60008115159050919050565b61202981612014565b82525050565b60006020820190506120446000830184612020565b92915050565b600081519050919050565b600082825260208201905092915050565b60005b83811015612084578082015181840152602081019050612069565b60008484015250505050565b6000601f19601f8301169050919050565b60006120ac8261204a565b6120b68185612055565b93506120c6818560208601612066565b6120cf81612090565b840191505092915050565b600060208201905081810360008301526120f481846120a1565b905092915050565b6000819050919050565b61210f816120fc565b811461211a57600080fd5b50565b60008135905061212c81612106565b92915050565b60006020828403121561214857612147611f85565b5b60006121568482850161211d565b91505092915050565b600073ffffffffffffffffffffffffffffffffffffffff82169050919050565b600061218a8261215f565b9050919050565b61219a8161217f565b82525050565b60006020820190506121b56000830184612191565b92915050565b6121c48161217f565b81146121cf57600080fd5b50565b6000813590506121e1816121bb565b92915050565b600080604083850312156121fe576121fd611f85565b5b600061220c858286016121d2565b925050602061221d8582860161211d565b9150509250929050565b612230816120fc565b82525050565b600060208201905061224b6000830184612227565b92915050565b60008060006060848603121561226a57612269611f85565b5b6000612278868287016121d2565b9350506020612289868287016121d2565b925050604061229a8682870161211d565b9150509250925092565b6000602082840312156122ba576122b9611f85565b5b60006122c8848285016121d2565b91505092915050565b6122da81612014565b81146122e557600080fd5b50565b6000813590506122f7816122d1565b92915050565b6000806040838503121561231457612313611f85565b5b6000612322858286016121d2565b9250506020612333858286016122e8565b9150509250929050565b600080fd5b600080fd5b7f4e487b7100000000000000000000000000000000000000000000000000000000600052604160045260246000fd5b61237f82612090565b810181811067ffffffffffffffff8211171561239e5761239d612347565b5b80604052505050565b60006123b1611f7b565b90506123bd8282612376565b919050565b600067ffffffffffffffff8211156123dd576123dc612347565b5b6123e682612090565b9050602081019050919050565b82818337600083830152505050565b6000612415612410846123c2565b6123a7565b90508281526020810184848401111561243157612430612342565b5b61243c8482856123f3565b509392505050565b600082601f8301126124595761245861233d565b5b8135612469848260208601612402565b91505092915050565b6000806000806080858703121561248c5761248b611f85565b5b600061249a878288016121d2565b94505060206124ab878288016121d2565b93505060406124bc8782880161211d565b925050606085013567ffffffffffffffff8111156124dd576124dc611f8a565b5b6124e987828801612444565b91505092959194509250565b600067ffffffffffffffff8211156125105761250f612347565b5b61251982612090565b9050602081019050919050565b6000612539612534846124f5565b6123a7565b90508281526020810184848401111561255557612554612342565b5b6125608482856123f3565b509392505050565b600082601f83011261257d5761257c61233d565b5b813561258d848260208601612526565b91505092915050565b600080604083850312156125ad576125ac611f85565b5b60006125bb858286016121d2565b925050602083013567ffffffffffffffff8111156125dc576125db611f8a565b5b6125e885828601612568565b9150509250929050565b6000806040838503121561260957612608611f85565b5b6000612617858286016121d2565b9250506020612628858286016121d2565b9150509250929050565b7f4e487b7100000000000000000000000000000000000000000000000000000000600052602260045260246000fd5b6000600282049050600182168061267957607f821691505b60208210810361268c5761268b612632565b5b50919050565b60006060820190506126a76000830186612191565b6126b46020830185612227565b6126c16040830184612191565b949350505050565b600081905092915050565b50565b60006126e46000836126c9565b91506126ef826126d4565b600082019050919050565b6000612705826126d7565b9150819050919050565b7f5769746864726177616c206661696c6564000000000000000000000000000000600082015250565b6000612745601183612055565b91506127508261270f565b602082019050919050565b6000602082019050818103600083015261277481612738565b9050919050565b7f53616c6520696e61637469766500000000000000000000000000000000000000600082015250565b60006127b1600d83612055565b91506127bc8261277b565b602082019050919050565b600060208201905081810360008301526127e0816127a4565b9050919050565b7f45786365656473206d6178207065722054580000000000000000000000000000600082015250565b600061281d601283612055565b9150612828826127e7565b602082019050919050565b6000602082019050818103600083015261284c81612810565b9050919050565b7f4e487b7100000000000000000000000000000000000000000000000000000000600052601160045260246000fd5b600061288d826120fc565b9150612898836120fc565b92508282026128a6816120fc565b915082820484148315176128bd576128bc612853565b5b5092915050565b7f496e636f7272656374204554482076616c756500000000000000000000000000600082015250565b60006128fa601383612055565b9150612905826128c4565b602082019050919050565b60006020820190508181036000830152612929816128ed565b9050919050565b600061293b826120fc565b9150612946836120fc565b925082820190508082111561295e5761295d612853565b5b92915050565b7f45786365656473206d617820737570706c790000000000000000000000000000600082015250565b600061299a601283612055565b91506129a582612964565b602082019050919050565b600060208201905081810360008301526129c98161298d565b9050919050565b60006129db826120fc565b91507fffffffffffffffffffffffffffffffffffffffffffffffffffffffffffffffff8203612a0d57612a0c612853565b5b600182019050919050565b7f4d617820737570706c7920726561636865640000000000000000000000000000600082015250565b6000612a4e601283612055565b9150612a5982612a18565b602082019050919050565b60006020820190508181036000830152612a7d81612a41565b9050919050565b600081519050919050565b600082825260208201905092915050565b6000612aab82612a84565b612ab58185612a8f565b9350612ac5818560208601612066565b612ace81612090565b840191505092915050565b6000608082019050612aee6000830187612191565b612afb6020830186612191565b612b086040830185612227565b8181036060830152612b1a8184612aa0565b905095945050505050565b600081519050612b3481611fbb565b92915050565b600060208284031215612b5057612b4f611f85565b5b6000612b5e84828501612b25565b91505092915050565b600081905092915050565b6000612b7d8261204a565b612b878185612b67565b9350612b97818560208601612066565b80840191505092915050565b6000612baf8285612b72565b9150612bbb8284612b72565b91508190509392505050565b60008190508160005260206000209050919050565b60006020601f8301049050919050565b600082821b905092915050565b600060088302612c297fffffffffffffffffffffffffffffffffffffffffffffffffffffffffffffffff82612bec565b612c338683612bec565b95508019841693508086168417925050509392505050565b6000819050919050565b6000612c70612c6b612c66846120fc565b612c4b565b6120fc565b9050919050565b6000819050919050565b612c8a83612c55565b612c9e612c9682612c77565b848454612bf9565b825550505050565b600090565b612cb3612ca6565b612cbe818484612c81565b505050565b5b81811015612ce257612cd7600082612cab565b600181019050612cc4565b5050565b601f821115612d2757612cf881612bc7565b612d0184612bdc565b81016020851015612d10578190505b612d24612d1c85612bdc565b830182612cc3565b50505b505050565b600082821c905092915050565b6000612d4a60001984600802612d2c565b1980831691505092915050565b6000612d638383612d39565b9150826002028217905092915050565b612d7c8261204a565b67ffffffffffffffff811115612d9557612d94612347565b5b612d9f8254612661565b612daa828285612ce6565b600060209050601f831160018114612ddd5760008415612dcb578287015190505b612dd58582612d57565b865550612e3d565b601f198416612deb86612bc7565b60005b82811015612e1357848901518255600182019150602085019450602081019050612dee565b86831015612e305784890151612e2c601f891682612d39565b8355505b6001600288020188555050505b505050505050565b6000604082019050612e5a6000830185612191565b612e676020830184612227565b9392505050565b7f4e487b7100000000000000000000000000000000000000000000000000000000600052601260045260246000fdfea26469706673582212206de79cffcf7b2712c66cd4c3768d1c6f6d6ad47a83c6b41f0a858e25a7752e9264736f6c634300081c0033",
  "linkReferences": {},
  "deployedLinkReferences": {}
}